{
    "contractName": "Vesting",
    "abi": [
        {
            "inputs": [],
            "stateMutability": "nonpayable",
            "type": "constructor"
        },
        {
            "anonymous": false,
            "inputs": [
                {
                    "indexed": true,
                    "internalType": "uint256",
                    "name": "streamId",
                    "type": "uint256"
                },
                {
                    "indexed": true,
                    "internalType": "address",
                    "name": "sender",
                    "type": "address"
                },
                {
                    "indexed": true,
                    "internalType": "address",
                    "name": "recipient",
                    "type": "address"
                },
                {
                    "indexed": false,
                    "internalType": "uint256",
                    "name": "senderBalance",
                    "type": "uint256"
                },
                {
                    "indexed": false,
                    "internalType": "uint256",
                    "name": "recipientBalance",
                    "type": "uint256"
                }
            ],
            "name": "CancelStream",
            "type": "event"
        },
        {
            "anonymous": false,
            "inputs": [
                {
                    "indexed": true,
                    "internalType": "uint256",
                    "name": "streamId",
                    "type": "uint256"
                },
                {
                    "indexed": true,
                    "internalType": "address",
                    "name": "sender",
                    "type": "address"
                },
                {
                    "indexed": true,
                    "internalType": "address",
                    "name": "recipient",
                    "type": "address"
                },
                {
                    "indexed": false,
                    "internalType": "uint256",
                    "name": "deposit",
                    "type": "uint256"
                },
                {
                    "indexed": false,
                    "internalType": "address",
                    "name": "tokenAddress",
                    "type": "address"
                },
                {
                    "indexed": false,
                    "internalType": "uint256",
                    "name": "startTime",
                    "type": "uint256"
                },
                {
                    "indexed": false,
                    "internalType": "uint256",
                    "name": "stopTime",
                    "type": "uint256"
                }
            ],
            "name": "CreateStream",
            "type": "event"
        },
        {
            "anonymous": false,
            "inputs": [
                {
                    "indexed": true,
                    "internalType": "uint256",
                    "name": "streamId",
                    "type": "uint256"
                },
                {
                    "indexed": true,
                    "internalType": "address",
                    "name": "recipient",
                    "type": "address"
                },
                {
                    "indexed": false,
                    "internalType": "uint256",
                    "name": "amount",
                    "type": "uint256"
                }
            ],
            "name": "WithdrawFromStream",
            "type": "event"
        },
        {
            "inputs": [
                {
                    "internalType": "uint256",
                    "name": "streamId",
                    "type": "uint256"
                },
                {
                    "internalType": "address",
                    "name": "who",
                    "type": "address"
                }
            ],
            "name": "balanceOf",
            "outputs": [
                {
                    "internalType": "uint256",
                    "name": "balance",
                    "type": "uint256"
                }
            ],
            "stateMutability": "view",
            "type": "function"
        },
        {
            "inputs": [
                {
                    "internalType": "uint256",
                    "name": "streamId",
                    "type": "uint256"
                }
            ],
            "name": "cancelStream",
            "outputs": [
                {
                    "internalType": "bool",
                    "name": "",
                    "type": "bool"
                }
            ],
            "stateMutability": "nonpayable",
            "type": "function"
        },
        {
            "inputs": [
                {
                    "internalType": "address",
                    "name": "recipient",
                    "type": "address"
                },
                {
                    "internalType": "uint256",
                    "name": "deposit",
                    "type": "uint256"
                },
                {
                    "internalType": "address",
                    "name": "tokenAddress",
                    "type": "address"
                },
                {
                    "internalType": "uint256",
                    "name": "startTime",
                    "type": "uint256"
                },
                {
                    "internalType": "uint256",
                    "name": "stopTime",
                    "type": "uint256"
                }
            ],
            "name": "createStream",
            "outputs": [
                {
                    "internalType": "uint256",
                    "name": "",
                    "type": "uint256"
                }
            ],
            "stateMutability": "nonpayable",
            "type": "function"
        },
        {
            "inputs": [
                {
                    "internalType": "uint256",
                    "name": "streamId",
                    "type": "uint256"
                }
            ],
            "name": "deltaOf",
            "outputs": [
                {
                    "internalType": "uint256",
                    "name": "delta",
                    "type": "uint256"
                }
            ],
            "stateMutability": "view",
            "type": "function"
        },
        {
            "inputs": [
                {
                    "internalType": "uint256",
                    "name": "streamId",
                    "type": "uint256"
                }
            ],
            "name": "getStream",
            "outputs": [
                {
                    "internalType": "address",
                    "name": "sender",
                    "type": "address"
                },
                {
                    "internalType": "address",
                    "name": "recipient",
                    "type": "address"
                },
                {
                    "internalType": "uint256",
                    "name": "deposit",
                    "type": "uint256"
                },
                {
                    "internalType": "address",
                    "name": "tokenAddress",
                    "type": "address"
                },
                {
                    "internalType": "uint256",
                    "name": "startTime",
                    "type": "uint256"
                },
                {
                    "internalType": "uint256",
                    "name": "stopTime",
                    "type": "uint256"
                },
                {
                    "internalType": "uint256",
                    "name": "remainingBalance",
                    "type": "uint256"
                },
                {
                    "internalType": "uint256",
                    "name": "ratePerSecond",
                    "type": "uint256"
                }
            ],
            "stateMutability": "view",
            "type": "function"
        },
        {
            "inputs": [],
            "name": "gov",
            "outputs": [
                {
                    "internalType": "address",
                    "name": "",
                    "type": "address"
                }
            ],
            "stateMutability": "view",
            "type": "function"
        },
        {
            "inputs": [],
            "name": "nextStreamId",
            "outputs": [
                {
                    "internalType": "uint256",
                    "name": "",
                    "type": "uint256"
                }
            ],
            "stateMutability": "view",
            "type": "function"
        },
        {
            "inputs": [
                {
                    "internalType": "address",
                    "name": "_gov",
                    "type": "address"
                }
            ],
            "name": "setGov",
            "outputs": [],
            "stateMutability": "nonpayable",
            "type": "function"
        },
        {
            "inputs": [],
            "name": "turnOnWithdrawals",
            "outputs": [],
            "stateMutability": "nonpayable",
            "type": "function"
        },
        {
            "inputs": [
                {
                    "internalType": "uint256",
                    "name": "streamId",
                    "type": "uint256"
                },
                {
                    "internalType": "uint256",
                    "name": "amount",
                    "type": "uint256"
                }
            ],
            "name": "withdrawFromStream",
            "outputs": [
                {
                    "internalType": "bool",
                    "name": "",
                    "type": "bool"
                }
            ],
            "stateMutability": "nonpayable",
            "type": "function"
        },
        {
            "inputs": [],
            "name": "withdrawable",
            "outputs": [
                {
                    "internalType": "bool",
                    "name": "",
                    "type": "bool"
                }
            ],
            "stateMutability": "view",
            "type": "function"
        }
    ],
    "bytecode": "608060405260018054610100600160a81b031916336101000217905534801561002757600080fd5b5060016000819055600355611ab7806100416000396000f3fe608060405234801561001057600080fd5b50600436106100a95760003560e01c80637a9b2c6c116100715780637a9b2c6c14610151578063894e9a0d14610174578063912cb95c146101f3578063a82ccd4d146101fd578063cc1b4bf61461021a578063cfad57a21461025a576100a9565b806312d43a51146100ae5780631e99d569146100d25780633656eec2146100ec57806350188301146101185780636db9241b14610134575b600080fd5b6100b6610280565b604080516001600160a01b039092168252519081900360200190f35b6100da610294565b60408051918252519081900360200190f35b6100da6004803603604081101561010257600080fd5b50803590602001356001600160a01b031661029a565b610120610580565b604080519115158252519081900360200190f35b6101206004803603602081101561014a57600080fd5b5035610589565b6101206004803603604081101561016757600080fd5b5080359060200135610a12565b6101916004803603602081101561018a57600080fd5b5035610ecc565b60405180896001600160a01b03168152602001886001600160a01b03168152602001878152602001866001600160a01b031681526020018581526020018481526020018381526020018281526020019850505050505050505060405180910390f35b6101fb610fa1565b005b6100da6004803603602081101561021357600080fd5b5035611054565b6100da600480360360a081101561023057600080fd5b506001600160a01b0381358116916020810135916040820135169060608101359060800135611190565b6101fb6004803603602081101561027057600080fd5b50356001600160a01b03166117c8565b60015461010090046001600160a01b031681565b60035481565b6000828152600460205260408120600701548390600160a01b900460ff16610301576040805162461bcd60e51b81526020600482015260156024820152741cdd1c99585b48191bd95cc81b9bdd08195e1a5cdd605a1b604482015290519081900360640190fd5b6103096118fa565b50600084815260046020818152604092839020835161012081018552815481526001820154928101929092526002810154938201939093526003830154606082015290820154608082015260058201546001600160a01b0390811660a08301526006830154811660c083015260079092015491821660e0820152600160a01b90910460ff16151561010082015261039e611963565b60006103a987611054565b90506103b9818460200151611844565b60208401819052838260038111156103cd57fe5b60038111156103d857fe5b90525060009050825160038111156103ec57fe5b146104285760405162461bcd60e51b8152600401808060200182810382526023815260200180611a286023913960400191505060405180910390fd5b6040830151835111156104cd5761044783600001518460400151611886565b604084018190528382600381111561045b57fe5b600381111561046657fe5b905250600090508251600381111561047a57fe5b1461048157fe5b61049382602001518360400151611886565b60208401819052838260038111156104a757fe5b60038111156104b257fe5b90525060009050825160038111156104c657fe5b146104cd57fe5b8260a001516001600160a01b0316866001600160a01b031614156104f957506020015192506105799050565b8260c001516001600160a01b0316866001600160a01b031614156105715761052983604001518360200151611886565b606084018190528382600381111561053d57fe5b600381111561054857fe5b905250600090508251600381111561055c57fe5b1461056357fe5b506060015192506105799050565b600094505050505b5092915050565b60015460ff1681565b6000600260005414156105e3576040805162461bcd60e51b815260206004820152601f60248201527f5265656e7472616e637947756172643a207265656e7472616e742063616c6c00604482015290519081900360640190fd5b60026000908155828152600460205260409020600701548290600160a01b900460ff1661064f576040805162461bcd60e51b81526020600482015260156024820152741cdd1c99585b48191bd95cc81b9bdd08195e1a5cdd605a1b604482015290519081900360640190fd5b60008381526004602052604090206006015483906001600160a01b031633148061069257506000818152600460205260409020600501546001600160a01b031633145b6106cd5760405162461bcd60e51b8152600401808060200182810382526037815260200180611a4b6037913960400191505060405180910390fd5b6106d56118fa565b506000848152600460208181526040808420815161012081018352815481526001820154938101939093526002810154918301919091526003810154606083015291820154608082015260058201546001600160a01b0390811660a08301526006830154811660c0830181905260079093015490811660e0830152600160a01b900460ff161515610100820152919061076f90879061029a565b90506000610781878460a0015161029a565b60008881526004602081905260408220828155600181018390556002810183905560038101839055908101919091556005810180546001600160a01b0319908116909155600682018054909116905560070180546001600160a81b031916905560e084015190915081156108c757806001600160a01b031663a9059cbb8560a00151846040518363ffffffff1660e01b815260040180836001600160a01b0316815260200182815260200192505050602060405180830381600087803b15801561084a57600080fd5b505af115801561085e573d6000803e3d6000fd5b505050506040513d602081101561087457600080fd5b50516108c7576040805162461bcd60e51b815260206004820181905260248201527f726563697069656e7420746f6b656e207472616e73666572206661696c757265604482015290519081900360640190fd5b82156109a557806001600160a01b031663a9059cbb8560c00151856040518363ffffffff1660e01b815260040180836001600160a01b0316815260200182815260200192505050602060405180830381600087803b15801561092857600080fd5b505af115801561093c573d6000803e3d6000fd5b505050506040513d602081101561095257600080fd5b50516109a5576040805162461bcd60e51b815260206004820152601d60248201527f73656e64657220746f6b656e207472616e73666572206661696c757265000000604482015290519081900360640190fd5b8360a001516001600160a01b03168460c001516001600160a01b0316897fca3e6079b726e7728802a0537949e2d1c7762304fa641fb06eb56daf2ba8c6b98686604051808381526020018281526020019250505060405180910390a4505060016000555092949350505050565b600060026000541415610a6c576040805162461bcd60e51b815260206004820152601f60248201527f5265656e7472616e637947756172643a207265656e7472616e742063616c6c00604482015290519081900360640190fd5b60026000908155838152600460205260409020600701548390600160a01b900460ff16610ad8576040805162461bcd60e51b81526020600482015260156024820152741cdd1c99585b48191bd95cc81b9bdd08195e1a5cdd605a1b604482015290519081900360640190fd5b60008481526004602052604090206006015484906001600160a01b0316331480610b1b57506000818152600460205260409020600501546001600160a01b031633145b610b565760405162461bcd60e51b8152600401808060200182810382526037815260200180611a4b6037913960400191505060405180910390fd5b60015460ff16610ba0576040805162461bcd60e51b815260206004820152601060248201526f6e6f7420776974686472617761626c6560801b604482015290519081900360640190fd5b60008411610be6576040805162461bcd60e51b815260206004820152600e60248201526d616d6f756e74206973207a65726f60901b604482015290519081900360640190fd5b610bee6118fa565b50600085815260046020818152604092839020835161012081018552815481526001820154928101929092526002810154938201939093526003830154606082015290820154608082015260058201546001600160a01b0390811660a08301526006830154811660c083015260079092015491821660e0820152600160a01b90910460ff161515610100820152610c8361198c565b6000610c93888460a0015161029a565b905086811015610cd45760405162461bcd60e51b81526004018080602001828103825260248152602001806119c16024913960400191505060405180910390fd5b610ce2836040015188611886565b60008a815260046020526040902060020181905583826003811115610d0357fe5b6003811115610d0e57fe5b9052506000905082516003811115610d2257fe5b14610d2957fe5b600088815260046020526040902060020154610da05760008881526004602081905260408220828155600181018390556002810183905560038101839055908101919091556005810180546001600160a01b0319908116909155600682018054909116905560070180546001600160a81b03191690555b8260e001516001600160a01b031663a9059cbb8460a00151896040518363ffffffff1660e01b815260040180836001600160a01b0316815260200182815260200192505050602060405180830381600087803b158015610dff57600080fd5b505af1158015610e13573d6000803e3d6000fd5b505050506040513d6020811015610e2957600080fd5b5051610e75576040805162461bcd60e51b8152602060048201526016602482015275746f6b656e207472616e73666572206661696c75726560501b604482015290519081900360640190fd5b8260a001516001600160a01b0316887f36c3ab437e6a424ed25dc4bfdeb62706aa06558660fab2dab229d2555adaf89c896040518082815260200191505060405180910390a3505060016000555091949350505050565b600080600080600080600080886004600082815260200190815260200160002060070160149054906101000a900460ff16610f46576040805162461bcd60e51b81526020600482015260156024820152741cdd1c99585b48191bd95cc81b9bdd08195e1a5cdd605a1b604482015290519081900360640190fd5b50505060009687525050600460208190526040909520600681015460058201548254600784015460038501549985015460028601546001909601546001600160a01b039586169c9486169b939a509490911697509095509350565b60015461010090046001600160a01b03163314610fee576040805162461bcd60e51b8152602060048083019190915260248201526310b3b7bb60e11b604482015290519081900360640190fd5b60015460ff1615611046576040805162461bcd60e51b815260206004820152601b60248201527f7769746864726177616c7320616c726561647920656e61626c65640000000000604482015290519081900360640190fd5b6001805460ff191681179055565b6000818152600460205260408120600701548290600160a01b900460ff166110bb576040805162461bcd60e51b81526020600482015260156024820152741cdd1c99585b48191bd95cc81b9bdd08195e1a5cdd605a1b604482015290519081900360640190fd5b6110c36118fa565b506000838152600460208181526040928390208351610120810185528154815260018201549281019290925260028101549382019390935260038301546060820181905291830154608082015260058301546001600160a01b0390811660a08301526006840154811660c083015260079093015492831660e0820152600160a01b90920460ff161515610100830152421161116257600092505061118a565b806080015142101561117b57606001514203915061118a565b80606001518160800151039250505b50919050565b60006001600160a01b0386166111ed576040805162461bcd60e51b815260206004820152601a60248201527f73747265616d20746f20746865207a65726f2061646472657373000000000000604482015290519081900360640190fd5b6001600160a01b03861630141561124b576040805162461bcd60e51b815260206004820152601d60248201527f73747265616d20746f2074686520636f6e747261637420697473656c66000000604482015290519081900360640190fd5b6001600160a01b0386163314156112a0576040805162461bcd60e51b815260206004820152601460248201527339ba3932b0b6903a37903a34329031b0b63632b960611b604482015290519081900360640190fd5b600085116112e7576040805162461bcd60e51b815260206004820152600f60248201526e6465706f736974206973207a65726f60881b604482015290519081900360640190fd5b428310156113265760405162461bcd60e51b81526004018080602001828103825260218152602001806119e56021913960400191505060405180910390fd5b82821161137a576040805162461bcd60e51b815260206004820152601f60248201527f73746f702074696d65206265666f7265207468652073746172742074696d6500604482015290519081900360640190fd5b61138261199e565b61138c8385611886565b60208301819052828260038111156113a057fe5b60038111156113ab57fe5b90525060009050815160038111156113bf57fe5b146113c657fe5b806020015186101561141f576040805162461bcd60e51b815260206004820152601f60248201527f6465706f73697420736d616c6c6572207468616e2074696d652064656c746100604482015290519081900360640190fd5b8060200151868161142c57fe5b06156114695760405162461bcd60e51b8152600401808060200182810382526022815260200180611a066022913960400191505060405180910390fd5b6114778682602001516118a9565b604083018190528282600381111561148b57fe5b600381111561149657fe5b90525060009050815160038111156114aa57fe5b146114b157fe5b6000600354905060405180610120016040528088815260200183604001518152602001888152602001868152602001858152602001896001600160a01b03168152602001336001600160a01b03168152602001876001600160a01b031681526020016001151581525060046000838152602001908152602001600020600082015181600001556020820151816001015560408201518160020155606082015181600301556080820151816004015560a08201518160050160006101000a8154816001600160a01b0302191690836001600160a01b0316021790555060c08201518160060160006101000a8154816001600160a01b0302191690836001600160a01b0316021790555060e08201518160070160006101000a8154816001600160a01b0302191690836001600160a01b031602179055506101008201518160070160146101000a81548160ff02191690831515021790555090505061161760035460016118d4565b60038181558490839081111561162957fe5b600381111561163457fe5b905250600090508251600381111561164857fe5b1461169a576040805162461bcd60e51b815260206004820181905260248201527f6e6578742073747265616d2069642063616c63756c6174696f6e206572726f72604482015290519081900360640190fd5b604080516323b872dd60e01b81523360048201523060248201526044810189905290516001600160a01b038816916323b872dd9160648083019260209291908290030181600087803b1580156116ef57600080fd5b505af1158015611703573d6000803e3d6000fd5b505050506040513d602081101561171957600080fd5b5051611765576040805162461bcd60e51b8152602060048201526016602482015275746f6b656e207472616e73666572206661696c75726560501b604482015290519081900360640190fd5b604080518881526001600160a01b038881166020830152818301889052606082018790529151918a1691339184917f7b01d409597969366dc268d7f957a990d1ca3d3449baf8fb45db67351aecfe789181900360800190a4979650505050505050565b60015461010090046001600160a01b0316331461181c576040805162461bcd60e51b815260206004820152600d60248201526c33b7bb1d1036bab9ba1033b7bb60991b604482015290519081900360640190fd5b600180546001600160a01b0390921661010002610100600160a81b0319909216919091179055565b600080836118575750600090508061187f565b8383028385828161186457fe5b04146118785760026000925092505061187f565b6000925090505b9250929050565b60008083831161189d57506000905081830361187f565b5060039050600061187f565b600080826118bd575060019050600061187f565b60008385816118c857fe5b04915091509250929050565b6000808383018481106118ec5760009250905061187f565b60026000925092505061187f565b604051806101200160405280600081526020016000815260200160008152602001600081526020016000815260200160006001600160a01b0316815260200160006001600160a01b0316815260200160006001600160a01b031681526020016000151581525090565b604080516080810190915280600081526020016000815260200160008152602001600081525090565b60408051602081019091526000815290565b604080516060810190915280600081526020016000815260200160008152509056fe616d6f756e7420657863656564732074686520617661696c61626c652062616c616e636573746172742074696d65206265666f726520626c6f636b2e74696d657374616d706465706f736974206e6f74206d756c7469706c65206f662074696d652064656c7461726563697069656e742062616c616e63652063616c63756c6174696f6e206572726f7263616c6c6572206973206e6f74207468652073656e646572206f722074686520726563697069656e74206f66207468652073747265616da2646970667358221220ca4a5dceddd3e294a6d058e126dbb3f56cdb3207c8b335f65d20d8cdefc9a18d64736f6c634300060c0033",
    "sourcePath": "/Users/Uni/Documents/GitHub/cryptounico/vesting-contracts/contracts/Vesting.sol",
    "compiler": {
        "name": "solc",
        "version": "0.6.12+commit.27d51765"
    },
    "functionHashes": {
        "balanceOf(uint256,address)": "3656eec2",
        "cancelStream(uint256)": "6db9241b",
        "createStream(address,uint256,address,uint256,uint256)": "cc1b4bf6",
        "deltaOf(uint256)": "a82ccd4d",
        "getStream(uint256)": "894e9a0d",
        "gov()": "12d43a51",
        "nextStreamId()": "1e99d569",
        "setGov(address)": "cfad57a2",
        "turnOnWithdrawals()": "912cb95c",
        "withdrawFromStream(uint256,uint256)": "7a9b2c6c",
        "withdrawable()": "50188301"
    },
    "gasEstimates": {
        "creation": {
            "codeDepositCost": "1367800",
            "executionCost": "62282",
            "totalCost": "1430082"
        },
        "external": {
            "balanceOf(uint256,address)": "infinite",
            "cancelStream(uint256)": "infinite",
            "createStream(address,uint256,address,uint256,uint256)": "infinite",
            "deltaOf(uint256)": "8383",
            "getStream(uint256)": "8105",
            "gov()": "1049",
            "nextStreamId()": "1021",
            "setGov(address)": "22045",
            "turnOnWithdrawals()": "22689",
            "withdrawFromStream(uint256,uint256)": "infinite",
            "withdrawable()": "1077"
        }
    }
}